{
  "contractName": "Staking",
  "abi": [
    {
      "inputs": [
        {
          "internalType": "contract Token",
          "name": "_token",
          "type": "address"
        }
      ],
      "stateMutability": "nonpayable",
      "type": "constructor"
    },
    {
      "anonymous": false,
      "inputs": [
        {
          "indexed": true,
          "internalType": "address",
          "name": "user",
          "type": "address"
        },
        {
          "indexed": false,
          "internalType": "uint256",
          "name": "etherAmount",
          "type": "uint256"
        },
        {
          "indexed": false,
          "internalType": "uint256",
          "name": "timeStart",
          "type": "uint256"
        }
      ],
      "name": "Deposit",
      "type": "event"
    },
    {
      "anonymous": false,
      "inputs": [
        {
          "indexed": true,
          "internalType": "address",
          "name": "user",
          "type": "address"
        },
        {
          "indexed": false,
          "internalType": "uint256",
          "name": "etherAmount",
          "type": "uint256"
        },
        {
          "indexed": false,
          "internalType": "uint256",
          "name": "depositTime",
          "type": "uint256"
        },
        {
          "indexed": false,
          "internalType": "uint256",
          "name": "interest",
          "type": "uint256"
        }
      ],
      "name": "Withdraw",
      "type": "event"
    },
    {
      "inputs": [
        {
          "internalType": "address",
          "name": "",
          "type": "address"
        }
      ],
      "name": "allTimeRewards",
      "outputs": [
        {
          "internalType": "uint256",
          "name": "",
          "type": "uint256"
        }
      ],
      "stateMutability": "view",
      "type": "function",
      "constant": true
    },
    {
      "inputs": [
        {
          "internalType": "address",
          "name": "",
          "type": "address"
        }
      ],
      "name": "depositStart",
      "outputs": [
        {
          "internalType": "uint256",
          "name": "",
          "type": "uint256"
        }
      ],
      "stateMutability": "view",
      "type": "function",
      "constant": true
    },
    {
      "inputs": [
        {
          "internalType": "address",
          "name": "",
          "type": "address"
        }
      ],
      "name": "etherBalanceOf",
      "outputs": [
        {
          "internalType": "uint256",
          "name": "",
          "type": "uint256"
        }
      ],
      "stateMutability": "view",
      "type": "function",
      "constant": true
    },
    {
      "inputs": [
        {
          "internalType": "address",
          "name": "",
          "type": "address"
        }
      ],
      "name": "isDeposited",
      "outputs": [
        {
          "internalType": "bool",
          "name": "",
          "type": "bool"
        }
      ],
      "stateMutability": "view",
      "type": "function",
      "constant": true
    },
    {
      "inputs": [],
      "name": "deposit",
      "outputs": [],
      "stateMutability": "payable",
      "type": "function",
      "payable": true
    },
    {
      "inputs": [],
      "name": "withdraw",
      "outputs": [],
      "stateMutability": "nonpayable",
      "type": "function"
    }
  ],
  "bytecode": "0x608060405234801561001057600080fd5b50604051610d21380380610d21833981810160405281019061003291906100ed565b806000806101000a81548173ffffffffffffffffffffffffffffffffffffffff021916908373ffffffffffffffffffffffffffffffffffffffff1602179055505061011a565b600080fd5b600073ffffffffffffffffffffffffffffffffffffffff82169050919050565b60006100a88261007d565b9050919050565b60006100ba8261009d565b9050919050565b6100ca816100af565b81146100d557600080fd5b50565b6000815190506100e7816100c1565b92915050565b60006020828403121561010357610102610078565b5b6000610111848285016100d8565b91505092915050565b610bf8806101296000396000f3fe6080604052600436106100555760003560e01c8063179fc99f1461005a5780632e6afcc2146100975780633ccfd60b146100d457806373732024146100eb578063d0e30db014610128578063ff87930a14610132575b600080fd5b34801561006657600080fd5b50610081600480360381019061007c9190610837565b61016f565b60405161008e919061087d565b60405180910390f35b3480156100a357600080fd5b506100be60048036038101906100b99190610837565b610187565b6040516100cb919061087d565b60405180910390f35b3480156100e057600080fd5b506100e961019f565b005b3480156100f757600080fd5b50610112600480360381019061010d9190610837565b6105d6565b60405161011f91906108b3565b60405180910390f35b6101306105f6565b005b34801561013e57600080fd5b5061015960048036038101906101549190610837565b6107bc565b604051610166919061087d565b60405180910390f35b60016020528060005260406000206000915090505481565b60046020528060005260406000206000915090505481565b60011515600360003373ffffffffffffffffffffffffffffffffffffffff1673ffffffffffffffffffffffffffffffffffffffff16815260200190815260200160002060009054906101000a900460ff16151514610232576040517f08c379a00000000000000000000000000000000000000000000000000000000081526004016102299061092b565b60405180910390fd5b6000600160003373ffffffffffffffffffffffffffffffffffffffff1673ffffffffffffffffffffffffffffffffffffffff1681526020019081526020016000205490506000600260003373ffffffffffffffffffffffffffffffffffffffff1673ffffffffffffffffffffffffffffffffffffffff16815260200190815260200160002054426102c3919061097a565b90506000662386f26fc10000600160003373ffffffffffffffffffffffffffffffffffffffff1673ffffffffffffffffffffffffffffffffffffffff1681526020019081526020016000205461031991906109dd565b6312e027ea6103289190610a0e565b9050600082826103389190610a0e565b90503373ffffffffffffffffffffffffffffffffffffffff166108fc859081150290604051600060405180830381858888f19350505050158015610380573d6000803e3d6000fd5b5060008054906101000a900473ffffffffffffffffffffffffffffffffffffffff1673ffffffffffffffffffffffffffffffffffffffff166340c10f1933836040518363ffffffff1660e01b81526004016103dc929190610a77565b600060405180830381600087803b1580156103f657600080fd5b505af115801561040a573d6000803e3d6000fd5b5050505080600460003373ffffffffffffffffffffffffffffffffffffffff1673ffffffffffffffffffffffffffffffffffffffff168152602001908152602001600020546104599190610aa0565b600460003373ffffffffffffffffffffffffffffffffffffffff1673ffffffffffffffffffffffffffffffffffffffff168152602001908152602001600020819055506000600260003373ffffffffffffffffffffffffffffffffffffffff1673ffffffffffffffffffffffffffffffffffffffff168152602001908152602001600020819055506000600160003373ffffffffffffffffffffffffffffffffffffffff1673ffffffffffffffffffffffffffffffffffffffff168152602001908152602001600020819055506000600360003373ffffffffffffffffffffffffffffffffffffffff1673ffffffffffffffffffffffffffffffffffffffff16815260200190815260200160002060006101000a81548160ff0219169083151502179055503373ffffffffffffffffffffffffffffffffffffffff167f02f25270a4d87bea75db541cdfe559334a275b4a233520ed6c0a2429667cca948585846040516105c893929190610af6565b60405180910390a250505050565b60036020528060005260406000206000915054906101000a900460ff1681565b662386f26fc10000341015610640576040517f08c379a000000000000000000000000000000000000000000000000000000000815260040161063790610b79565b60405180910390fd5b34600160003373ffffffffffffffffffffffffffffffffffffffff1673ffffffffffffffffffffffffffffffffffffffff1681526020019081526020016000205461068b9190610aa0565b600160003373ffffffffffffffffffffffffffffffffffffffff1673ffffffffffffffffffffffffffffffffffffffff1681526020019081526020016000208190555042600260003373ffffffffffffffffffffffffffffffffffffffff1673ffffffffffffffffffffffffffffffffffffffff168152602001908152602001600020819055506001600360003373ffffffffffffffffffffffffffffffffffffffff1673ffffffffffffffffffffffffffffffffffffffff16815260200190815260200160002060006101000a81548160ff0219169083151502179055503373ffffffffffffffffffffffffffffffffffffffff167f90890809c654f11d6e72a28fa60149770a0d11ec6c92319d6ceb2bb0a4ea1a1534426040516107b2929190610b99565b60405180910390a2565b60026020528060005260406000206000915090505481565b600080fd5b600073ffffffffffffffffffffffffffffffffffffffff82169050919050565b6000610804826107d9565b9050919050565b610814816107f9565b811461081f57600080fd5b50565b6000813590506108318161080b565b92915050565b60006020828403121561084d5761084c6107d4565b5b600061085b84828501610822565b91505092915050565b6000819050919050565b61087781610864565b82525050565b6000602082019050610892600083018461086e565b92915050565b60008115159050919050565b6108ad81610898565b82525050565b60006020820190506108c860008301846108a4565b92915050565b600082825260208201905092915050565b7f796f7572206465706f736974206163636f756e7420697320656d707479000000600082015250565b6000610915601d836108ce565b9150610920826108df565b602082019050919050565b6000602082019050818103600083015261094481610908565b9050919050565b7f4e487b7100000000000000000000000000000000000000000000000000000000600052601160045260246000fd5b600061098582610864565b915061099083610864565b9250828210156109a3576109a261094b565b5b828203905092915050565b7f4e487b7100000000000000000000000000000000000000000000000000000000600052601260045260246000fd5b60006109e882610864565b91506109f383610864565b925082610a0357610a026109ae565b5b828204905092915050565b6000610a1982610864565b9150610a2483610864565b9250817fffffffffffffffffffffffffffffffffffffffffffffffffffffffffffffffff0483118215151615610a5d57610a5c61094b565b5b828202905092915050565b610a71816107f9565b82525050565b6000604082019050610a8c6000830185610a68565b610a99602083018461086e565b9392505050565b6000610aab82610864565b9150610ab683610864565b9250827fffffffffffffffffffffffffffffffffffffffffffffffffffffffffffffffff03821115610aeb57610aea61094b565b5b828201905092915050565b6000606082019050610b0b600083018661086e565b610b18602083018561086e565b610b25604083018461086e565b949350505050565b7f6465706f736974206d757374206265203e3d20302e3031455448000000000000600082015250565b6000610b63601a836108ce565b9150610b6e82610b2d565b602082019050919050565b60006020820190508181036000830152610b9281610b56565b9050919050565b6000604082019050610bae600083018561086e565b610bbb602083018461086e565b939250505056fea26469706673582212207ec8a375810c10fa7deb2492547d6509717737a3bd31e7c762ed831b6cdbbe2264736f6c634300080d0033",
  "immutableReferences": {},
  "source": "// SPDX-License-Identifier: MIT\npragma solidity >=0.4.22 <0.9.0;\nimport \"./Token.sol\";\n\ncontract Staking {\n  //assign Token contract to variable\n  Token private token;\n\n  //add mappings\nmapping(address=>uint) public etherBalanceOf;\nmapping(address=>uint) public depositStart;\nmapping(address=>bool) public isDeposited;\nmapping(address=>uint) public allTimeRewards;\n  //add events\nevent Deposit(address indexed user, uint etherAmount, uint timeStart);\nevent Withdraw(address indexed user, uint etherAmount, uint depositTime, uint interest);\n  //pass as constructor argument deployed Token contract\n  constructor(Token _token) {\n    token = _token;\n  }\n\n  function deposit() payable public {\n    //check if msg.sender didn't already deposited funds\n    //check if msg.value is >= than 0.01 ETH\n    require(msg.value>=1e16, 'deposit must be >= 0.01ETH');\n\n    //increase msg.sender ether deposit balance\n    etherBalanceOf[msg.sender] = etherBalanceOf[msg.sender] + msg.value;\n    //start msg.sender hodling time\n    depositStart[msg.sender] = block.timestamp; \n    //set msg.sender deposit status to true\n    isDeposited[msg.sender] = true;\n    //emit Deposit event\n  emit Deposit(msg.sender, msg.value, block.timestamp);\n  }\n\n\n  function withdraw() public {\n    //check if msg.sender deposit status is true\n    require(isDeposited[msg.sender] == true, 'your deposit account is empty');\n    //assign msg.sender ether deposit balance to variable for event\n    uint userBalance = etherBalanceOf[msg.sender];\n    //check user's hodl time\n    uint depositTime = block.timestamp - depositStart[msg.sender];\n    //calc interest per second\n    uint interestPerSecond = 316680170 * (etherBalanceOf[msg.sender] / 1e16);\n    uint interest = interestPerSecond * depositTime;\n    //calc accrued interest\n\n    //send eth to user\n    payable(msg.sender).transfer(userBalance);\n    //send interest in tokens to user\n    token.mint(msg.sender, interest);\n    allTimeRewards[msg.sender] = allTimeRewards[msg.sender] + interest;\n    //reset depositer data\n    depositStart[msg.sender] = 0;\n    etherBalanceOf[msg.sender] = 0;\n    isDeposited[msg.sender] = false;\n    //emit event\n    emit Withdraw(msg.sender, userBalance, depositTime, interest);\n  }\n}\n",
  "sourcePath": "C:\\Users\\dev17\\code\\defi-project\\contracts\\Staking.sol",
  "compiler": {
    "name": "solc",
    "version": "0.8.13+commit.abaa5c0e.Emscripten.clang"
  },
  "schemaVersion": "3.4.7",
  "updatedAt": "2022-05-06T08:29:27.584Z",
  "networkType": "ethereum",
  "devdoc": {
    "kind": "dev",
    "methods": {},
    "version": 1
  },
  "userdoc": {
    "kind": "user",
    "methods": {},
    "version": 1
  }
}